{
  "address": "0x30e12a2f8C933ba13482BaB0B795524c48E3Aef8",
  "abi": [
    {
      "inputs": [],
      "stateMutability": "nonpayable",
      "type": "constructor"
    },
    {
      "anonymous": false,
      "inputs": [
        {
          "indexed": true,
          "internalType": "uint256",
          "name": "index",
          "type": "uint256"
        },
        {
          "components": [
            {
              "internalType": "uint256",
              "name": "index",
              "type": "uint256"
            },
            {
              "internalType": "string",
              "name": "shortcutType",
              "type": "string"
            },
            {
              "internalType": "string",
              "name": "endpoint",
              "type": "string"
            },
            {
              "internalType": "address",
              "name": "contractAddr",
              "type": "address"
            },
            {
              "components": [
                {
                  "internalType": "string",
                  "name": "name",
                  "type": "string"
                },
                {
                  "internalType": "string",
                  "name": "value",
                  "type": "string"
                }
              ],
              "internalType": "struct ShortcutsInterface.UserParams[]",
              "name": "userParams",
              "type": "tuple[]"
            },
            {
              "internalType": "bool",
              "name": "isReady",
              "type": "bool"
            }
          ],
          "indexed": false,
          "internalType": "struct ShortcutsInterface.Shortcut",
          "name": "newShortcut",
          "type": "tuple"
        },
        {
          "indexed": false,
          "internalType": "uint256",
          "name": "blockNum",
          "type": "uint256"
        }
      ],
      "name": "AddShortcut",
      "type": "event"
    },
    {
      "anonymous": false,
      "inputs": [
        {
          "indexed": true,
          "internalType": "uint256",
          "name": "index",
          "type": "uint256"
        },
        {
          "indexed": false,
          "internalType": "bool",
          "name": "newIsReady",
          "type": "bool"
        }
      ],
      "name": "SetIsReady",
      "type": "event"
    },
    {
      "inputs": [
        {
          "internalType": "string",
          "name": "shortcutType",
          "type": "string"
        },
        {
          "internalType": "string",
          "name": "endpoint",
          "type": "string"
        },
        {
          "internalType": "address",
          "name": "contractAddr",
          "type": "address"
        },
        {
          "components": [
            {
              "internalType": "string",
              "name": "name",
              "type": "string"
            },
            {
              "internalType": "string",
              "name": "value",
              "type": "string"
            }
          ],
          "internalType": "struct ShortcutsInterface.UserParams[]",
          "name": "userParams",
          "type": "tuple[]"
        },
        {
          "internalType": "bool",
          "name": "isReady",
          "type": "bool"
        }
      ],
      "name": "addShortcut",
      "outputs": [
        {
          "internalType": "uint256",
          "name": "",
          "type": "uint256"
        }
      ],
      "stateMutability": "nonpayable",
      "type": "function"
    },
    {
      "inputs": [],
      "name": "admin",
      "outputs": [
        {
          "internalType": "address",
          "name": "",
          "type": "address"
        }
      ],
      "stateMutability": "view",
      "type": "function"
    },
    {
      "inputs": [],
      "name": "getAllShortcuts",
      "outputs": [
        {
          "components": [
            {
              "internalType": "uint256",
              "name": "index",
              "type": "uint256"
            },
            {
              "internalType": "string",
              "name": "shortcutType",
              "type": "string"
            },
            {
              "internalType": "string",
              "name": "endpoint",
              "type": "string"
            },
            {
              "internalType": "address",
              "name": "contractAddr",
              "type": "address"
            },
            {
              "components": [
                {
                  "internalType": "string",
                  "name": "name",
                  "type": "string"
                },
                {
                  "internalType": "string",
                  "name": "value",
                  "type": "string"
                }
              ],
              "internalType": "struct ShortcutsInterface.UserParams[]",
              "name": "userParams",
              "type": "tuple[]"
            },
            {
              "internalType": "bool",
              "name": "isReady",
              "type": "bool"
            }
          ],
          "internalType": "struct ShortcutsInterface.Shortcut[]",
          "name": "",
          "type": "tuple[]"
        }
      ],
      "stateMutability": "view",
      "type": "function"
    },
    {
      "inputs": [
        {
          "internalType": "uint256",
          "name": "index",
          "type": "uint256"
        }
      ],
      "name": "getShortcutByIndex",
      "outputs": [
        {
          "components": [
            {
              "internalType": "uint256",
              "name": "index",
              "type": "uint256"
            },
            {
              "internalType": "string",
              "name": "shortcutType",
              "type": "string"
            },
            {
              "internalType": "string",
              "name": "endpoint",
              "type": "string"
            },
            {
              "internalType": "address",
              "name": "contractAddr",
              "type": "address"
            },
            {
              "components": [
                {
                  "internalType": "string",
                  "name": "name",
                  "type": "string"
                },
                {
                  "internalType": "string",
                  "name": "value",
                  "type": "string"
                }
              ],
              "internalType": "struct ShortcutsInterface.UserParams[]",
              "name": "userParams",
              "type": "tuple[]"
            },
            {
              "internalType": "bool",
              "name": "isReady",
              "type": "bool"
            }
          ],
          "internalType": "struct ShortcutsInterface.Shortcut",
          "name": "",
          "type": "tuple"
        }
      ],
      "stateMutability": "view",
      "type": "function"
    },
    {
      "inputs": [
        {
          "internalType": "uint256",
          "name": "index",
          "type": "uint256"
        },
        {
          "internalType": "bool",
          "name": "newIsReady",
          "type": "bool"
        }
      ],
      "name": "setIsReady",
      "outputs": [],
      "stateMutability": "nonpayable",
      "type": "function"
    }
  ],
  "transactionHash": "0x79f26c776770d36fc873354bc14d17dea9dda60eeddfc16fa050f70feb321120",
  "args": [],
  "numDeployments": 3,
  "solcInputHash": "807c6829f7082377f42e9ff004d5d74a",
  "bytecode": "0x608060405234801561001057600080fd5b50600080546001600160a01b0319163317905561119d806100326000396000f3fe608060405234801561001057600080fd5b50600436106100575760003560e01c806362515b751461005c5780637ed81b211461008557806392a5890c146100a6578063b76ed2b4146100bb578063f851a440146100d0575b600080fd5b61006f61006a366004610aa6565b6100fb565b60405161007c9190610bf6565b60405180910390f35b610098610093366004610d05565b6103f3565b60405190815260200161007c565b6100b96100b4366004610eb3565b610596565b005b6100c361063b565b60405161007c9190610edf565b6000546100e3906001600160a01b031681565b6040516001600160a01b03909116815260200161007c565b6101036109cc565b600082815260016020818152604092839020835160c081019094528054845291820180549184019161013490610f41565b80601f016020809104026020016040519081016040528092919081815260200182805461016090610f41565b80156101ad5780601f10610182576101008083540402835291602001916101ad565b820191906000526020600020905b81548152906001019060200180831161019057829003601f168201915b505050505081526020016002820180546101c690610f41565b80601f01602080910402602001604051908101604052809291908181526020018280546101f290610f41565b801561023f5780601f106102145761010080835404028352916020019161023f565b820191906000526020600020905b81548152906001019060200180831161022257829003601f168201915b505050918352505060038201546001600160a01b0316602080830191909152600483018054604080518285028101850182528281529401939260009084015b828210156103d457838290600052602060002090600202016040518060400160405290816000820180546102b190610f41565b80601f01602080910402602001604051908101604052809291908181526020018280546102dd90610f41565b801561032a5780601f106102ff5761010080835404028352916020019161032a565b820191906000526020600020905b81548152906001019060200180831161030d57829003601f168201915b5050505050815260200160018201805461034390610f41565b80601f016020809104026020016040519081016040528092919081815260200182805461036f90610f41565b80156103bc5780601f10610391576101008083540402835291602001916103bc565b820191906000526020600020905b81548152906001019060200180831161039f57829003601f168201915b5050505050815250508152602001906001019061027e565b505050908252506005919091015460ff16151560209091015292915050565b600080546001600160a01b0316331461043f5760405162461bcd60e51b815260206004820152600960248201526837b7363ca0b236b4b760b91b60448201526064015b60405180910390fd5b600060025460016104509190610f92565b60008181526001602081815260409092208a519394509261047792918401918b0190610a0d565b50865161048d90600283019060208a0190610a0d565b506003810180546001600160a01b0319166001600160a01b03881617905560058101805460ff1916851515179055845160005b8181101561054757826004018782815181106104de576104de610faa565b60209081029190910181015182546001810184556000938452928290208151805192946002029091019261051792849290910190610a0d565b5060208281015180516105309260018501920190610a0d565b5050506001816105409190610f92565b90506104c0565b5082600281905550827f94dc9ecd2303581f50382e72b763db27b4e24d19d4f0d8dce47f840cfbd790898343604051610581929190611060565b60405180910390a25090979650505050505050565b6000546001600160a01b031633146105dc5760405162461bcd60e51b815260206004820152600960248201526837b7363ca0b236b4b760b91b6044820152606401610436565b817f9253a4d03ac738a62a61a5c103ed51f241dc9416c1f4d98b9d2ce6d079e4684282604051610610911515815260200190565b60405180910390a2600091825260016020526040909120600501805460ff1916911515919091179055565b60025460609060008167ffffffffffffffff81111561065c5761065c610c10565b60405190808252806020026020018201604052801561069557816020015b6106826109cc565b81526020019060019003908161067a5790505b50905060015b8281116109c557600081815260016020818152604092839020835160c08101909452805484529182018054918401916106d390610f41565b80601f01602080910402602001604051908101604052809291908181526020018280546106ff90610f41565b801561074c5780601f106107215761010080835404028352916020019161074c565b820191906000526020600020905b81548152906001019060200180831161072f57829003601f168201915b5050505050815260200160028201805461076590610f41565b80601f016020809104026020016040519081016040528092919081815260200182805461079190610f41565b80156107de5780601f106107b3576101008083540402835291602001916107de565b820191906000526020600020905b8154815290600101906020018083116107c157829003601f168201915b505050918352505060038201546001600160a01b0316602080830191909152600483018054604080518285028101850182528281529401939260009084015b82821015610973578382906000526020600020906002020160405180604001604052908160008201805461085090610f41565b80601f016020809104026020016040519081016040528092919081815260200182805461087c90610f41565b80156108c95780601f1061089e576101008083540402835291602001916108c9565b820191906000526020600020905b8154815290600101906020018083116108ac57829003601f168201915b505050505081526020016001820180546108e290610f41565b80601f016020809104026020016040519081016040528092919081815260200182805461090e90610f41565b801561095b5780601f106109305761010080835404028352916020019161095b565b820191906000526020600020905b81548152906001019060200180831161093e57829003601f168201915b5050505050815250508152602001906001019061081d565b505050908252506005919091015460ff16151560209091015282610998600184611150565b815181106109a8576109a8610faa565b60209081029190910101526109be600182610f92565b905061069b565b5092915050565b6040518060c0016040528060008152602001606081526020016060815260200160006001600160a01b03168152602001606081526020016000151581525090565b828054610a1990610f41565b90600052602060002090601f016020900481019282610a3b5760008555610a81565b82601f10610a5457805160ff1916838001178555610a81565b82800160010185558215610a81579182015b82811115610a81578251825591602001919060010190610a66565b50610a8d929150610a91565b5090565b5b80821115610a8d5760008155600101610a92565b600060208284031215610ab857600080fd5b5035919050565b6000815180845260005b81811015610ae557602081850181015186830182015201610ac9565b81811115610af7576000602083870101525b50601f01601f19169290920160200192915050565b80518252600060208083015160c082860152610b2b60c0860182610abf565b905060408085015186830382880152610b448382610abf565b6060878101516001600160a01b031690890152608080880151898303918a019190915280518083529194508501915084840190600581901b8501860160005b82811015610bd357868203601f1901845284518051878452610ba788850182610abf565b918a0151848303858c0152919050610bbf8183610abf565b968a0196958a019593505050600101610b83565b5060a08901519650610be960a08b018815159052565b9998505050505050505050565b602081526000610c096020830184610b0c565b9392505050565b634e487b7160e01b600052604160045260246000fd5b6040805190810167ffffffffffffffff81118282101715610c4957610c49610c10565b60405290565b604051601f8201601f1916810167ffffffffffffffff81118282101715610c7857610c78610c10565b604052919050565b600082601f830112610c9157600080fd5b813567ffffffffffffffff811115610cab57610cab610c10565b610cbe601f8201601f1916602001610c4f565b818152846020838601011115610cd357600080fd5b816020850160208301376000918101602001919091529392505050565b80358015158114610d0057600080fd5b919050565b600080600080600060a08688031215610d1d57600080fd5b67ffffffffffffffff8087351115610d3457600080fd5b610d418888358901610c80565b95508060208801351115610d5457600080fd5b610d648860208901358901610c80565b945060408701356001600160a01b03811614610d7f57600080fd5b604087013593508060608801351115610d9757600080fd5b6060870135870188601f820112610dad57600080fd5b8181351115610dbe57610dbe610c10565b610dce6020823560051b01610c4f565b81358082526020808301929160051b8401018b1015610dec57600080fd5b602083015b6020843560051b850101811015610e94578481351115610e1057600080fd5b803584016040818e03601f19011215610e2857600080fd5b610e30610c26565b8660208301351115610e4157600080fd5b610e538e602080850135850101610c80565b81528660408301351115610e6657600080fd5b610e798e60206040850135850101610c80565b60208201528085525050602083019250602081019050610df1565b509450610ea79250505060808701610cf0565b90509295509295909350565b60008060408385031215610ec657600080fd5b82359150610ed660208401610cf0565b90509250929050565b6000602080830181845280855180835260408601915060408160051b870101925083870160005b82811015610f3457603f19888603018452610f22858351610b0c565b94509285019290850190600101610f06565b5092979650505050505050565b600181811c90821680610f5557607f821691505b60208210811415610f7657634e487b7160e01b600052602260045260246000fd5b50919050565b634e487b7160e01b600052601160045260246000fd5b60008219821115610fa557610fa5610f7c565b500190565b634e487b7160e01b600052603260045260246000fd5b8054600090600181811c9080831680610fda57607f831692505b6020808410821415610ffc57634e487b7160e01b600052602260045260246000fd5b83885260208801828015611017576001811461102857611053565b60ff19871682528282019750611053565b60008981526020902060005b8781101561104d57815484820152908601908401611034565b83019850505b5050505050505092915050565b60006040808352845481840152600160c060608501526110866101008501828801610fc0565b6002603f19808784030160808801526110a183838b01610fc0565b60038a01546001600160a01b031660a089015287810390910160c0880152600489018054808352600091825260208083209395508086019392600583901b87018201905b8381101561112a57878203601f190186528982526111058a830186610fc0565b82810384840152611118818b8801610fc0565b968401969588019592505088016110e5565b5060059c909c015460ff16151560e08b0152909801989098525096979650505050505050565b60008282101561116257611162610f7c565b50039056fea264697066735822122024ba626ef12c0302129b3fe8ff112df552a49f43ed10b34f26225e9e1cf924e264736f6c634300080b0033",
  "devdoc": {
    "kind": "dev",
    "methods": {},
    "version": 1
  },
  "userdoc": {
    "kind": "user",
    "methods": {},
    "version": 1
  },
  "storageLayout": {
    "storage": [
      {
        "astId": 6,
        "contract": "src/Shortcuts.sol:Shortcuts",
        "label": "admin",
        "offset": 0,
        "slot": "0",
        "type": "t_address"
      },
      {
        "astId": 11,
        "contract": "src/Shortcuts.sol:Shortcuts",
        "label": "_shortcuts",
        "offset": 0,
        "slot": "1",
        "type": "t_mapping(t_uint256,t_struct(Shortcut)239_storage)"
      },
      {
        "astId": 13,
        "contract": "src/Shortcuts.sol:Shortcuts",
        "label": "_index",
        "offset": 0,
        "slot": "2",
        "type": "t_uint256"
      }
    ],
    "types": {
      "t_address": {
        "encoding": "inplace",
        "label": "address",
        "numberOfBytes": "20"
      },
      "t_array(t_struct(UserParams)224_storage)dyn_storage": {
        "base": "t_struct(UserParams)224_storage",
        "encoding": "dynamic_array",
        "label": "struct ShortcutsInterface.UserParams[]",
        "numberOfBytes": "32"
      },
      "t_bool": {
        "encoding": "inplace",
        "label": "bool",
        "numberOfBytes": "1"
      },
      "t_mapping(t_uint256,t_struct(Shortcut)239_storage)": {
        "encoding": "mapping",
        "key": "t_uint256",
        "label": "mapping(uint256 => struct ShortcutsInterface.Shortcut)",
        "numberOfBytes": "32",
        "value": "t_struct(Shortcut)239_storage"
      },
      "t_string_storage": {
        "encoding": "bytes",
        "label": "string",
        "numberOfBytes": "32"
      },
      "t_struct(Shortcut)239_storage": {
        "encoding": "inplace",
        "label": "struct ShortcutsInterface.Shortcut",
        "members": [
          {
            "astId": 226,
            "contract": "src/Shortcuts.sol:Shortcuts",
            "label": "index",
            "offset": 0,
            "slot": "0",
            "type": "t_uint256"
          },
          {
            "astId": 228,
            "contract": "src/Shortcuts.sol:Shortcuts",
            "label": "shortcutType",
            "offset": 0,
            "slot": "1",
            "type": "t_string_storage"
          },
          {
            "astId": 230,
            "contract": "src/Shortcuts.sol:Shortcuts",
            "label": "endpoint",
            "offset": 0,
            "slot": "2",
            "type": "t_string_storage"
          },
          {
            "astId": 232,
            "contract": "src/Shortcuts.sol:Shortcuts",
            "label": "contractAddr",
            "offset": 0,
            "slot": "3",
            "type": "t_address"
          },
          {
            "astId": 236,
            "contract": "src/Shortcuts.sol:Shortcuts",
            "label": "userParams",
            "offset": 0,
            "slot": "4",
            "type": "t_array(t_struct(UserParams)224_storage)dyn_storage"
          },
          {
            "astId": 238,
            "contract": "src/Shortcuts.sol:Shortcuts",
            "label": "isReady",
            "offset": 0,
            "slot": "5",
            "type": "t_bool"
          }
        ],
        "numberOfBytes": "192"
      },
      "t_struct(UserParams)224_storage": {
        "encoding": "inplace",
        "label": "struct ShortcutsInterface.UserParams",
        "members": [
          {
            "astId": 221,
            "contract": "src/Shortcuts.sol:Shortcuts",
            "label": "name",
            "offset": 0,
            "slot": "0",
            "type": "t_string_storage"
          },
          {
            "astId": 223,
            "contract": "src/Shortcuts.sol:Shortcuts",
            "label": "value",
            "offset": 0,
            "slot": "1",
            "type": "t_string_storage"
          }
        ],
        "numberOfBytes": "64"
      },
      "t_uint256": {
        "encoding": "inplace",
        "label": "uint256",
        "numberOfBytes": "32"
      }
    }
  }
}