{
  "address": "0x34D1dAE9B929F5f90DE6AeF1D34fD959431701c1",
  "abi": [
    {
      "inputs": [],
      "stateMutability": "nonpayable",
      "type": "constructor"
    },
    {
      "inputs": [
        {
          "components": [
            {
              "internalType": "string",
              "name": "name",
              "type": "string"
            },
            {
              "internalType": "string",
              "name": "endpoint",
              "type": "string"
            },
            {
              "internalType": "string",
              "name": "selector",
              "type": "string"
            },
            {
              "internalType": "address",
              "name": "contractAddr",
              "type": "address"
            },
            {
              "components": [
                {
                  "internalType": "string",
                  "name": "name",
                  "type": "string"
                },
                {
                  "internalType": "string",
                  "name": "value",
                  "type": "string"
                }
              ],
              "internalType": "struct ShortcutsInterface.UserParams[]",
              "name": "userParams",
              "type": "tuple[]"
            },
            {
              "internalType": "string",
              "name": "shortCutsType",
              "type": "string"
            }
          ],
          "internalType": "struct ShortcutsInterface.ShortCut",
          "name": "dto",
          "type": "tuple"
        }
      ],
      "name": "addShortCut",
      "outputs": [],
      "stateMutability": "nonpayable",
      "type": "function"
    },
    {
      "inputs": [],
      "name": "admin",
      "outputs": [
        {
          "internalType": "address",
          "name": "",
          "type": "address"
        }
      ],
      "stateMutability": "view",
      "type": "function"
    },
    {
      "inputs": [],
      "name": "getAllShortCuts",
      "outputs": [
        {
          "components": [
            {
              "internalType": "string",
              "name": "name",
              "type": "string"
            },
            {
              "internalType": "string",
              "name": "endpoint",
              "type": "string"
            },
            {
              "internalType": "string",
              "name": "selector",
              "type": "string"
            },
            {
              "internalType": "address",
              "name": "contractAddr",
              "type": "address"
            },
            {
              "components": [
                {
                  "internalType": "string",
                  "name": "name",
                  "type": "string"
                },
                {
                  "internalType": "string",
                  "name": "value",
                  "type": "string"
                }
              ],
              "internalType": "struct ShortcutsInterface.UserParams[]",
              "name": "userParams",
              "type": "tuple[]"
            },
            {
              "internalType": "string",
              "name": "shortCutsType",
              "type": "string"
            }
          ],
          "internalType": "struct ShortcutsInterface.ShortCut[]",
          "name": "",
          "type": "tuple[]"
        }
      ],
      "stateMutability": "view",
      "type": "function"
    },
    {
      "inputs": [
        {
          "internalType": "uint256",
          "name": "index",
          "type": "uint256"
        }
      ],
      "name": "getShortCutByIndex",
      "outputs": [
        {
          "components": [
            {
              "internalType": "string",
              "name": "name",
              "type": "string"
            },
            {
              "internalType": "string",
              "name": "endpoint",
              "type": "string"
            },
            {
              "internalType": "string",
              "name": "selector",
              "type": "string"
            },
            {
              "internalType": "address",
              "name": "contractAddr",
              "type": "address"
            },
            {
              "components": [
                {
                  "internalType": "string",
                  "name": "name",
                  "type": "string"
                },
                {
                  "internalType": "string",
                  "name": "value",
                  "type": "string"
                }
              ],
              "internalType": "struct ShortcutsInterface.UserParams[]",
              "name": "userParams",
              "type": "tuple[]"
            },
            {
              "internalType": "string",
              "name": "shortCutsType",
              "type": "string"
            }
          ],
          "internalType": "struct ShortcutsInterface.ShortCut",
          "name": "",
          "type": "tuple"
        }
      ],
      "stateMutability": "view",
      "type": "function"
    }
  ],
  "transactionHash": "0xf2fec960ff11c8967a2bbdce9ff45427d2e70369569573e135fa3d6f56fd8f29",
  "args": [],
  "numDeployments": 1,
  "solcInputHash": "44ad9718565c414c4751bd6ff2f3c910",
  "bytecode": "0x608060405234801561001057600080fd5b50600080546001600160a01b03191633179055611195806100326000396000f3fe608060405234801561001057600080fd5b506004361061004c5760003560e01c806306ff99aa146100515780631177ab7f146100665780633b692a6e1461008f578063f851a440146100a4575b600080fd5b61006461005f366004610df9565b6100cf565b005b610079610074366004610f07565b610273565b604051610086919061106c565b60405180910390f35b610097610676565b6040516100869190611086565b6000546100b7906001600160a01b031681565b6040516001600160a01b039091168152602001610086565b6000546001600160a01b031633146101195760405162461bcd60e51b815260206004820152600960248201526837b7363ca0b236b4b760b91b604482015260640160405180910390fd5b600060016002600082825461012e91906110e8565b918290555060008181526001602090815260409091208551805193955090935061015e9284929190910190610b08565b5060208084015180516101779260018501920190610b08565b5060408301518051610193916002840191602090910190610b08565b5060608301516003820180546001600160a01b0319166001600160a01b0390921691909117905560a083015180516101d5916005840191602090910190610b08565b5060808301515160005b8181101561026a5782600401856080015182815181106102015761020161110e565b60209081029190910181015182546001810184556000938452928290208151805192946002029091019261023a92849290910190610b08565b5060208281015180516102539260018501920190610b08565b50505060018161026391906110e8565b90506101df565b50505060025550565b61027b610b8c565b60008281526001602052604090819020815160c081019092528054829082906102a390611124565b80601f01602080910402602001604051908101604052809291908181526020018280546102cf90611124565b801561031c5780601f106102f15761010080835404028352916020019161031c565b820191906000526020600020905b8154815290600101906020018083116102ff57829003601f168201915b5050505050815260200160018201805461033590611124565b80601f016020809104026020016040519081016040528092919081815260200182805461036190611124565b80156103ae5780601f10610383576101008083540402835291602001916103ae565b820191906000526020600020905b81548152906001019060200180831161039157829003601f168201915b505050505081526020016002820180546103c790611124565b80601f01602080910402602001604051908101604052809291908181526020018280546103f390611124565b80156104405780601f1061041557610100808354040283529160200191610440565b820191906000526020600020905b81548152906001019060200180831161042357829003601f168201915b505050918352505060038201546001600160a01b0316602080830191909152600483018054604080518285028101850182528281529401939260009084015b828210156105d557838290600052602060002090600202016040518060400160405290816000820180546104b290611124565b80601f01602080910402602001604051908101604052809291908181526020018280546104de90611124565b801561052b5780601f106105005761010080835404028352916020019161052b565b820191906000526020600020905b81548152906001019060200180831161050e57829003601f168201915b5050505050815260200160018201805461054490611124565b80601f016020809104026020016040519081016040528092919081815260200182805461057090611124565b80156105bd5780601f10610592576101008083540402835291602001916105bd565b820191906000526020600020905b8154815290600101906020018083116105a057829003601f168201915b5050505050815250508152602001906001019061047f565b5050505081526020016005820180546105ed90611124565b80601f016020809104026020016040519081016040528092919081815260200182805461061990611124565b80156106665780601f1061063b57610100808354040283529160200191610666565b820191906000526020600020905b81548152906001019060200180831161064957829003601f168201915b5050505050815250509050919050565b60025460609060008167ffffffffffffffff81111561069757610697610be0565b6040519080825280602002602001820160405280156106d057816020015b6106bd610b8c565b8152602001906001900390816106b55790505b50905060005b82811015610b015760008181526001602052604090819020815160c0810190925280548290829061070690611124565b80601f016020809104026020016040519081016040528092919081815260200182805461073290611124565b801561077f5780601f106107545761010080835404028352916020019161077f565b820191906000526020600020905b81548152906001019060200180831161076257829003601f168201915b5050505050815260200160018201805461079890611124565b80601f01602080910402602001604051908101604052809291908181526020018280546107c490611124565b80156108115780601f106107e657610100808354040283529160200191610811565b820191906000526020600020905b8154815290600101906020018083116107f457829003601f168201915b5050505050815260200160028201805461082a90611124565b80601f016020809104026020016040519081016040528092919081815260200182805461085690611124565b80156108a35780601f10610878576101008083540402835291602001916108a3565b820191906000526020600020905b81548152906001019060200180831161088657829003601f168201915b505050918352505060038201546001600160a01b0316602080830191909152600483018054604080518285028101850182528281529401939260009084015b82821015610a38578382906000526020600020906002020160405180604001604052908160008201805461091590611124565b80601f016020809104026020016040519081016040528092919081815260200182805461094190611124565b801561098e5780601f106109635761010080835404028352916020019161098e565b820191906000526020600020905b81548152906001019060200180831161097157829003601f168201915b505050505081526020016001820180546109a790611124565b80601f01602080910402602001604051908101604052809291908181526020018280546109d390611124565b8015610a205780601f106109f557610100808354040283529160200191610a20565b820191906000526020600020905b815481529060010190602001808311610a0357829003601f168201915b505050505081525050815260200190600101906108e2565b505050508152602001600582018054610a5090611124565b80601f0160208091040260200160405190810160405280929190818152602001828054610a7c90611124565b8015610ac95780601f10610a9e57610100808354040283529160200191610ac9565b820191906000526020600020905b815481529060010190602001808311610aac57829003601f168201915b505050505081525050828281518110610ae457610ae461110e565b6020908102919091010152610afa6001826110e8565b90506106d6565b5092915050565b828054610b1490611124565b90600052602060002090601f016020900481019282610b365760008555610b7c565b82601f10610b4f57805160ff1916838001178555610b7c565b82800160010185558215610b7c579182015b82811115610b7c578251825591602001919060010190610b61565b50610b88929150610bcb565b5090565b6040518060c0016040528060608152602001606081526020016060815260200160006001600160a01b0316815260200160608152602001606081525090565b5b80821115610b885760008155600101610bcc565b634e487b7160e01b600052604160045260246000fd5b6040805190810167ffffffffffffffff81118282101715610c1957610c19610be0565b60405290565b60405160c0810167ffffffffffffffff81118282101715610c1957610c19610be0565b604051601f8201601f1916810167ffffffffffffffff81118282101715610c6b57610c6b610be0565b604052919050565b600082601f830112610c8457600080fd5b813567ffffffffffffffff811115610c9e57610c9e610be0565b610cb1601f8201601f1916602001610c42565b818152846020838601011115610cc657600080fd5b816020850160208301376000918101602001919091529392505050565b80356001600160a01b0381168114610cfa57600080fd5b919050565b600082601f830112610d1057600080fd5b8135602067ffffffffffffffff80831115610d2d57610d2d610be0565b8260051b610d3c838201610c42565b9384528581018301938381019088861115610d5657600080fd5b84880192505b85831015610ded57823584811115610d745760008081fd5b88016040818b03601f1901811315610d8c5760008081fd5b610d94610bf6565b8783013587811115610da65760008081fd5b610db48d8a83870101610c73565b825250908201359086821115610dca5760008081fd5b610dd88c8984860101610c73565b81890152845250509184019190840190610d5c565b98975050505050505050565b600060208284031215610e0b57600080fd5b813567ffffffffffffffff80821115610e2357600080fd5b9083019060c08286031215610e3757600080fd5b610e3f610c1f565b823582811115610e4e57600080fd5b610e5a87828601610c73565b825250602083013582811115610e6f57600080fd5b610e7b87828601610c73565b602083015250604083013582811115610e9357600080fd5b610e9f87828601610c73565b604083015250610eb160608401610ce3565b6060820152608083013582811115610ec857600080fd5b610ed487828601610cff565b60808301525060a083013582811115610eec57600080fd5b610ef887828601610c73565b60a08301525095945050505050565b600060208284031215610f1957600080fd5b5035919050565b6000815180845260005b81811015610f4657602081850181015186830182015201610f2a565b81811115610f58576000602083870101525b50601f01601f19169290920160200192915050565b6000815160c08452610f8260c0850182610f20565b905060208084015185830382870152610f9b8382610f20565b92505060408085015186840382880152610fb58482610f20565b6060878101516001600160a01b031690890152608080880151898303918a019190915280518083529195508401915083850190600581901b8601850160005b8281101561104457878203601f190184528451805187845261101888850182610f20565b91890151848303858b01529190506110308183610f20565b968901969589019593505050600101610ff4565b5060a0890151965089810360a08b015261105e8188610f20565b9a9950505050505050505050565b60208152600061107f6020830184610f6d565b9392505050565b6000602080830181845280855180835260408601915060408160051b870101925083870160005b828110156110db57603f198886030184526110c9858351610f6d565b945092850192908501906001016110ad565b5092979650505050505050565b6000821982111561110957634e487b7160e01b600052601160045260246000fd5b500190565b634e487b7160e01b600052603260045260246000fd5b600181811c9082168061113857607f821691505b6020821081141561115957634e487b7160e01b600052602260045260246000fd5b5091905056fea26469706673582212209603f4c5f18bfe4b9d891080325620654952a163bc3d2fd41b0445f7d140a5c764736f6c634300080b0033",
  "devdoc": {
    "kind": "dev",
    "methods": {},
    "version": 1
  },
  "userdoc": {
    "kind": "user",
    "methods": {},
    "version": 1
  },
  "storageLayout": {
    "storage": [
      {
        "astId": 6,
        "contract": "src/Shortcuts.sol:ShortCuts",
        "label": "admin",
        "offset": 0,
        "slot": "0",
        "type": "t_address"
      },
      {
        "astId": 11,
        "contract": "src/Shortcuts.sol:ShortCuts",
        "label": "_shortCuts",
        "offset": 0,
        "slot": "1",
        "type": "t_mapping(t_uint256,t_struct(ShortCut)208_storage)"
      },
      {
        "astId": 13,
        "contract": "src/Shortcuts.sol:ShortCuts",
        "label": "_index",
        "offset": 0,
        "slot": "2",
        "type": "t_uint256"
      }
    ],
    "types": {
      "t_address": {
        "encoding": "inplace",
        "label": "address",
        "numberOfBytes": "20"
      },
      "t_array(t_struct(UserParams)193_storage)dyn_storage": {
        "base": "t_struct(UserParams)193_storage",
        "encoding": "dynamic_array",
        "label": "struct ShortcutsInterface.UserParams[]",
        "numberOfBytes": "32"
      },
      "t_mapping(t_uint256,t_struct(ShortCut)208_storage)": {
        "encoding": "mapping",
        "key": "t_uint256",
        "label": "mapping(uint256 => struct ShortcutsInterface.ShortCut)",
        "numberOfBytes": "32",
        "value": "t_struct(ShortCut)208_storage"
      },
      "t_string_storage": {
        "encoding": "bytes",
        "label": "string",
        "numberOfBytes": "32"
      },
      "t_struct(ShortCut)208_storage": {
        "encoding": "inplace",
        "label": "struct ShortcutsInterface.ShortCut",
        "members": [
          {
            "astId": 195,
            "contract": "src/Shortcuts.sol:ShortCuts",
            "label": "name",
            "offset": 0,
            "slot": "0",
            "type": "t_string_storage"
          },
          {
            "astId": 197,
            "contract": "src/Shortcuts.sol:ShortCuts",
            "label": "endpoint",
            "offset": 0,
            "slot": "1",
            "type": "t_string_storage"
          },
          {
            "astId": 199,
            "contract": "src/Shortcuts.sol:ShortCuts",
            "label": "selector",
            "offset": 0,
            "slot": "2",
            "type": "t_string_storage"
          },
          {
            "astId": 201,
            "contract": "src/Shortcuts.sol:ShortCuts",
            "label": "contractAddr",
            "offset": 0,
            "slot": "3",
            "type": "t_address"
          },
          {
            "astId": 205,
            "contract": "src/Shortcuts.sol:ShortCuts",
            "label": "userParams",
            "offset": 0,
            "slot": "4",
            "type": "t_array(t_struct(UserParams)193_storage)dyn_storage"
          },
          {
            "astId": 207,
            "contract": "src/Shortcuts.sol:ShortCuts",
            "label": "shortCutsType",
            "offset": 0,
            "slot": "5",
            "type": "t_string_storage"
          }
        ],
        "numberOfBytes": "192"
      },
      "t_struct(UserParams)193_storage": {
        "encoding": "inplace",
        "label": "struct ShortcutsInterface.UserParams",
        "members": [
          {
            "astId": 190,
            "contract": "src/Shortcuts.sol:ShortCuts",
            "label": "name",
            "offset": 0,
            "slot": "0",
            "type": "t_string_storage"
          },
          {
            "astId": 192,
            "contract": "src/Shortcuts.sol:ShortCuts",
            "label": "value",
            "offset": 0,
            "slot": "1",
            "type": "t_string_storage"
          }
        ],
        "numberOfBytes": "64"
      },
      "t_uint256": {
        "encoding": "inplace",
        "label": "uint256",
        "numberOfBytes": "32"
      }
    }
  }
}