{
  "address": "0x0CF6D3D3FEC650Cf8dABC925f8307ACC997a425C",
  "abi": [
    {
      "inputs": [],
      "stateMutability": "nonpayable",
      "type": "constructor"
    },
    {
      "anonymous": false,
      "inputs": [
        {
          "indexed": true,
          "internalType": "uint256",
          "name": "index",
          "type": "uint256"
        },
        {
          "components": [
            {
              "internalType": "uint256",
              "name": "index",
              "type": "uint256"
            },
            {
              "internalType": "string",
              "name": "shortcutType",
              "type": "string"
            },
            {
              "internalType": "string",
              "name": "endpoint",
              "type": "string"
            },
            {
              "internalType": "address",
              "name": "contractAddr",
              "type": "address"
            },
            {
              "internalType": "bool",
              "name": "isReady",
              "type": "bool"
            }
          ],
          "indexed": false,
          "internalType": "struct ShortcutsInterface.Shortcut",
          "name": "newShortcut",
          "type": "tuple"
        },
        {
          "indexed": false,
          "internalType": "uint256",
          "name": "blockNum",
          "type": "uint256"
        }
      ],
      "name": "AddShortcut",
      "type": "event"
    },
    {
      "anonymous": false,
      "inputs": [
        {
          "indexed": true,
          "internalType": "uint256",
          "name": "index",
          "type": "uint256"
        },
        {
          "indexed": false,
          "internalType": "bool",
          "name": "newIsReady",
          "type": "bool"
        }
      ],
      "name": "SetIsReady",
      "type": "event"
    },
    {
      "inputs": [
        {
          "internalType": "string",
          "name": "shortcutType",
          "type": "string"
        },
        {
          "internalType": "string",
          "name": "endpoint",
          "type": "string"
        },
        {
          "internalType": "address",
          "name": "contractAddr",
          "type": "address"
        },
        {
          "internalType": "bool",
          "name": "isReady",
          "type": "bool"
        }
      ],
      "name": "addShortcut",
      "outputs": [
        {
          "internalType": "uint256",
          "name": "",
          "type": "uint256"
        }
      ],
      "stateMutability": "nonpayable",
      "type": "function"
    },
    {
      "inputs": [],
      "name": "admin",
      "outputs": [
        {
          "internalType": "address",
          "name": "",
          "type": "address"
        }
      ],
      "stateMutability": "view",
      "type": "function"
    },
    {
      "inputs": [],
      "name": "getAllShortcuts",
      "outputs": [
        {
          "components": [
            {
              "internalType": "uint256",
              "name": "index",
              "type": "uint256"
            },
            {
              "internalType": "string",
              "name": "shortcutType",
              "type": "string"
            },
            {
              "internalType": "string",
              "name": "endpoint",
              "type": "string"
            },
            {
              "internalType": "address",
              "name": "contractAddr",
              "type": "address"
            },
            {
              "internalType": "bool",
              "name": "isReady",
              "type": "bool"
            }
          ],
          "internalType": "struct ShortcutsInterface.Shortcut[]",
          "name": "",
          "type": "tuple[]"
        }
      ],
      "stateMutability": "view",
      "type": "function"
    },
    {
      "inputs": [
        {
          "internalType": "uint256",
          "name": "index",
          "type": "uint256"
        }
      ],
      "name": "getShortcutByIndex",
      "outputs": [
        {
          "components": [
            {
              "internalType": "uint256",
              "name": "index",
              "type": "uint256"
            },
            {
              "internalType": "string",
              "name": "shortcutType",
              "type": "string"
            },
            {
              "internalType": "string",
              "name": "endpoint",
              "type": "string"
            },
            {
              "internalType": "address",
              "name": "contractAddr",
              "type": "address"
            },
            {
              "internalType": "bool",
              "name": "isReady",
              "type": "bool"
            }
          ],
          "internalType": "struct ShortcutsInterface.Shortcut",
          "name": "",
          "type": "tuple"
        }
      ],
      "stateMutability": "view",
      "type": "function"
    },
    {
      "inputs": [
        {
          "internalType": "uint256",
          "name": "index",
          "type": "uint256"
        },
        {
          "internalType": "bool",
          "name": "newIsReady",
          "type": "bool"
        }
      ],
      "name": "setIsReady",
      "outputs": [],
      "stateMutability": "nonpayable",
      "type": "function"
    }
  ],
  "transactionHash": "0x07d5ea321ed7e18ad28e3423f602ff32d076f80a04de75f2a216fc071d23f00f",
  "args": [],
  "numDeployments": 1,
  "solcInputHash": "dc29222f826dd9827ff7f78b14f7738b",
  "bytecode": "0x608060405234801561001057600080fd5b50600080546001600160a01b03191633179055610b10806100326000396000f3fe608060405234801561001057600080fd5b50600436106100575760003560e01c80630d2ae82b1461005c57806362515b751461008257806392a5890c146100a2578063b76ed2b4146100b7578063f851a440146100cc575b600080fd5b61006f61006a36600461081e565b6100f7565b6040519081526020015b60405180910390f35b6100956100903660046108b1565b610256565b604051610079919061097a565b6100b56100b0366004610994565b6103d0565b005b6100bf610480565b60405161007991906109c0565b6000546100df906001600160a01b031681565b6040516001600160a01b039091168152602001610079565b600080546001600160a01b031633146101435760405162461bcd60e51b815260206004820152600960248201526837b7363ca0b236b4b760b91b60448201526064015b60405180910390fd5b600060025460016101549190610a38565b6040805160a08101825282815260208082018a81528284018a90526001600160a01b038916606084015287151560808401526000858152600180845294902083518155905180519596509294859491936101b393928501920190610693565b50604082015180516101cf916002840191602090910190610693565b506060820151600390910180546080909301511515600160a01b026001600160a81b03199093166001600160a01b0390921691909117919091179055600282905560405182907f1b77bf13b7479ca64b97b458f8c9c6da1302e4d971f642fb9f4a0cf972e126c4906102449084904390610a50565b60405180910390a25095945050505050565b61025e610717565b600082815260016020818152604092839020835160a081019094528054845291820180549184019161028f90610a72565b80601f01602080910402602001604051908101604052809291908181526020018280546102bb90610a72565b80156103085780601f106102dd57610100808354040283529160200191610308565b820191906000526020600020905b8154815290600101906020018083116102eb57829003601f168201915b5050505050815260200160028201805461032190610a72565b80601f016020809104026020016040519081016040528092919081815260200182805461034d90610a72565b801561039a5780601f1061036f5761010080835404028352916020019161039a565b820191906000526020600020905b81548152906001019060200180831161037d57829003601f168201915b5050509183525050600391909101546001600160a01b0381166020830152600160a01b900460ff16151560409091015292915050565b6000546001600160a01b031633146104165760405162461bcd60e51b815260206004820152600960248201526837b7363ca0b236b4b760b91b604482015260640161013a565b817f9253a4d03ac738a62a61a5c103ed51f241dc9416c1f4d98b9d2ce6d079e468428260405161044a911515815260200190565b60405180910390a26000918252600160205260409091206003018054911515600160a01b0260ff60a01b19909216919091179055565b60025460609060008167ffffffffffffffff8111156104a1576104a1610766565b6040519080825280602002602001820160405280156104da57816020015b6104c7610717565b8152602001906001900390816104bf5790505b50905060015b82811161068c57600081815260016020818152604092839020835160a081019094528054845291820180549184019161051890610a72565b80601f016020809104026020016040519081016040528092919081815260200182805461054490610a72565b80156105915780601f1061056657610100808354040283529160200191610591565b820191906000526020600020905b81548152906001019060200180831161057457829003601f168201915b505050505081526020016002820180546105aa90610a72565b80601f01602080910402602001604051908101604052809291908181526020018280546105d690610a72565b80156106235780601f106105f857610100808354040283529160200191610623565b820191906000526020600020905b81548152906001019060200180831161060657829003601f168201915b5050509183525050600391909101546001600160a01b0381166020830152600160a01b900460ff1615156040909101528261065f600184610aad565b8151811061066f5761066f610ac4565b6020908102919091010152610685600182610a38565b90506104e0565b5092915050565b82805461069f90610a72565b90600052602060002090601f0160209004810192826106c15760008555610707565b82601f106106da57805160ff1916838001178555610707565b82800160010185558215610707579182015b828111156107075782518255916020019190600101906106ec565b50610713929150610751565b5090565b6040518060a0016040528060008152602001606081526020016060815260200160006001600160a01b031681526020016000151581525090565b5b808211156107135760008155600101610752565b634e487b7160e01b600052604160045260246000fd5b600082601f83011261078d57600080fd5b813567ffffffffffffffff808211156107a8576107a8610766565b604051601f8301601f19908116603f011681019082821181831017156107d0576107d0610766565b816040528381528660208588010111156107e957600080fd5b836020870160208301376000602085830101528094505050505092915050565b8035801515811461081957600080fd5b919050565b6000806000806080858703121561083457600080fd5b843567ffffffffffffffff8082111561084c57600080fd5b6108588883890161077c565b9550602087013591508082111561086e57600080fd5b5061087b8782880161077c565b93505060408501356001600160a01b038116811461089857600080fd5b91506108a660608601610809565b905092959194509250565b6000602082840312156108c357600080fd5b5035919050565b6000815180845260005b818110156108f0576020818501810151868301820152016108d4565b81811115610902576000602083870101525b50601f01601f19169290920160200192915050565b805182526000602082015160a0602085015261093660a08501826108ca565b90506040830151848203604086015261094f82826108ca565b6060858101516001600160a01b03169087015260809485015115159490950193909352509192915050565b60208152600061098d6020830184610917565b9392505050565b600080604083850312156109a757600080fd5b823591506109b760208401610809565b90509250929050565b6000602080830181845280855180835260408601915060408160051b870101925083870160005b82811015610a1557603f19888603018452610a03858351610917565b945092850192908501906001016109e7565b5092979650505050505050565b634e487b7160e01b600052601160045260246000fd5b60008219821115610a4b57610a4b610a22565b500190565b604081526000610a636040830185610917565b90508260208301529392505050565b600181811c90821680610a8657607f821691505b60208210811415610aa757634e487b7160e01b600052602260045260246000fd5b50919050565b600082821015610abf57610abf610a22565b500390565b634e487b7160e01b600052603260045260246000fdfea264697066735822122030c4963f166a59e3d0215e2bf6a8c420bc2c570853fc47f8e791cc14543d85e464736f6c634300080b0033",
  "devdoc": {
    "kind": "dev",
    "methods": {},
    "version": 1
  },
  "userdoc": {
    "kind": "user",
    "methods": {},
    "version": 1
  },
  "storageLayout": {
    "storage": [
      {
        "astId": 6,
        "contract": "src/Shortcuts.sol:Shortcuts",
        "label": "admin",
        "offset": 0,
        "slot": "0",
        "type": "t_address"
      },
      {
        "astId": 11,
        "contract": "src/Shortcuts.sol:Shortcuts",
        "label": "_shortcuts",
        "offset": 0,
        "slot": "1",
        "type": "t_mapping(t_uint256,t_struct(Shortcut)184_storage)"
      },
      {
        "astId": 13,
        "contract": "src/Shortcuts.sol:Shortcuts",
        "label": "_index",
        "offset": 0,
        "slot": "2",
        "type": "t_uint256"
      }
    ],
    "types": {
      "t_address": {
        "encoding": "inplace",
        "label": "address",
        "numberOfBytes": "20"
      },
      "t_bool": {
        "encoding": "inplace",
        "label": "bool",
        "numberOfBytes": "1"
      },
      "t_mapping(t_uint256,t_struct(Shortcut)184_storage)": {
        "encoding": "mapping",
        "key": "t_uint256",
        "label": "mapping(uint256 => struct ShortcutsInterface.Shortcut)",
        "numberOfBytes": "32",
        "value": "t_struct(Shortcut)184_storage"
      },
      "t_string_storage": {
        "encoding": "bytes",
        "label": "string",
        "numberOfBytes": "32"
      },
      "t_struct(Shortcut)184_storage": {
        "encoding": "inplace",
        "label": "struct ShortcutsInterface.Shortcut",
        "members": [
          {
            "astId": 175,
            "contract": "src/Shortcuts.sol:Shortcuts",
            "label": "index",
            "offset": 0,
            "slot": "0",
            "type": "t_uint256"
          },
          {
            "astId": 177,
            "contract": "src/Shortcuts.sol:Shortcuts",
            "label": "shortcutType",
            "offset": 0,
            "slot": "1",
            "type": "t_string_storage"
          },
          {
            "astId": 179,
            "contract": "src/Shortcuts.sol:Shortcuts",
            "label": "endpoint",
            "offset": 0,
            "slot": "2",
            "type": "t_string_storage"
          },
          {
            "astId": 181,
            "contract": "src/Shortcuts.sol:Shortcuts",
            "label": "contractAddr",
            "offset": 0,
            "slot": "3",
            "type": "t_address"
          },
          {
            "astId": 183,
            "contract": "src/Shortcuts.sol:Shortcuts",
            "label": "isReady",
            "offset": 20,
            "slot": "3",
            "type": "t_bool"
          }
        ],
        "numberOfBytes": "128"
      },
      "t_uint256": {
        "encoding": "inplace",
        "label": "uint256",
        "numberOfBytes": "32"
      }
    }
  }
}